:100000000C9434000C943E000C943E000C943E0082
:100010000C943E000C943E000C943E000C943E0068
:100020000C943E000C943E000C943E000C943E0058
:100030000C943E000C943E000C943E000C943E0048
:100040000C943E000C943E000C943E000C943E0038
:100050000C943E000C943E000C943E000C943E0028
:100060000C943E000C943E0011241FBECFEFD8E04C
:10007000DEBFCDBF0E9440000C945A000C940000DB
:1000800085E084B980EE85B984E08AB906C030FF86
:100090000BC084E09BB1892B8BB933B123B183B101
:1000A000982F947021FDF3CF81E0911180E0880FAB
:0800B000880FF0CFF894FFCF98
:00000001FF
